:100000000C9446000C945D000C945D000C945D0013
:100010000C945D000C945D000C945D000C945D00EC
:100020000C945D000C945D000C945D000C945D00DC
:100030000C945D000C945D000C945D000C945D00CC
:100040000C945D000C945D000C945D000C945D00BC
:100050000C945D000C945D000C945D000C945D00AC
:100060000C945D000C945D000C945D000C945D009C
:100070000C945D000C945D000C945D000C945D008C
:100080000C945D000C945D000C945D0011241FBE67
:10009000CFEFD0E4DEBFCDBF11E0A0E0B1E0EAEFEA
:1000A000F2E000E00BBF02C007900D92AE30B10746
:1000B000D9F70E9499000C947B010C940000CF9317
:1000C000DF9300D00F92CDB7DEB789837B836A833D
:1000D00089818A3031F48A819B81BC018DE00E9444
:1000E0005F0080EC90E0FC018081882F90E08072BE
:1000F0009927892BB1F386EC90E02981FC012083BC
:1001000080E090E00F900F900F90DF91CF910895D5
:10011000CF93DF93CDB7DEB78AE790E0FC01208173
:100120008AE790E0206EFC0120830000DF91CF91F0
:100130000895CF93DF9300D00F92CDB7DEB781E261
:1001400090E0FC01108282E290E02FEFFC0120831E
:1001500084E290E02FEFFC01208385E290E0FC0137
:1001600010828AE290E02FEFFC0120838BE290E086
:10017000FC0110820E9488008CEF898380E290E06D
:10018000FC01208180E290E02170FC01208388E75F
:1001900090E0FC01808191819B838A83898186958F
:1001A00086958695882F90E02A813B81281739070C
:1001B00028F485E290E0FC011082E9CF89818695E0
:1001C00086958695882F90E0880F991F9C018A81DB
:1001D0009B818217930730F485E290E021E0FC01D7
:1001E0002083D5CF8981869586958695282F30E006
:1001F000C901880F991F820F931F9C018A819B81DF
:100200008217930730F485E290E023E0FC0120831D
:10021000BECF8981869586958695882F90E0880F38
:10022000991F880F991F9C018A819B8182179307D0
:1002300030F485E290E027E0FC012083A8CF89819B
:10024000869586958695282F30E0C901880F991FDD
:10025000880F991F820F931F9C018A819B818217AF
:10026000930730F485E290E02FE1FC0120838FCFEB
:100270008981869586958695282F30E0C901880F5B
:10028000991F820F931F880F991F9C018A819B8160
:100290008217930730F485E290E02FE3FC0120837E
:1002A00076CF8981869586958695282F30E0C9017D
:1002B000880F991F880F991F880F991F821B930B16
:1002C0009C018A819B818217930730F485E290E03C
:1002D0002FE7FC0120835BCF8981882F90E02A8162
:1002E0003B812817390708F452CF85E290E02FEFC1
:0A02F000FC0120834CCFF894FFCFEF
:0E02FA0000000002000000005F000000000095
:00000001FF
